{
  "_format": "hh-sol-artifact-1",
  "contractName": "RandomNFT",
  "sourceName": "contracts/randomp.sol",
  "abi": [
    {
      "inputs": [],
      "stateMutability": "nonpayable",
      "type": "constructor"
    },
    {
      "anonymous": false,
      "inputs": [
        {
          "indexed": true,
          "internalType": "address",
          "name": "owner",
          "type": "address"
        },
        {
          "indexed": true,
          "internalType": "address",
          "name": "approved",
          "type": "address"
        },
        {
          "indexed": true,
          "internalType": "uint256",
          "name": "tokenId",
          "type": "uint256"
        }
      ],
      "name": "Approval",
      "type": "event"
    },
    {
      "anonymous": false,
      "inputs": [
        {
          "indexed": true,
          "internalType": "address",
          "name": "owner",
          "type": "address"
        },
        {
          "indexed": true,
          "internalType": "address",
          "name": "operator",
          "type": "address"
        },
        {
          "indexed": false,
          "internalType": "bool",
          "name": "approved",
          "type": "bool"
        }
      ],
      "name": "ApprovalForAll",
      "type": "event"
    },
    {
      "anonymous": false,
      "inputs": [
        {
          "indexed": false,
          "internalType": "uint256",
          "name": "_fromTokenId",
          "type": "uint256"
        },
        {
          "indexed": false,
          "internalType": "uint256",
          "name": "_toTokenId",
          "type": "uint256"
        }
      ],
      "name": "BatchMetadataUpdate",
      "type": "event"
    },
    {
      "anonymous": false,
      "inputs": [
        {
          "indexed": false,
          "internalType": "uint256",
          "name": "_tokenId",
          "type": "uint256"
        }
      ],
      "name": "MetadataUpdate",
      "type": "event"
    },
    {
      "anonymous": false,
      "inputs": [
        {
          "indexed": true,
          "internalType": "address",
          "name": "previousOwner",
          "type": "address"
        },
        {
          "indexed": true,
          "internalType": "address",
          "name": "newOwner",
          "type": "address"
        }
      ],
      "name": "OwnershipTransferred",
      "type": "event"
    },
    {
      "anonymous": false,
      "inputs": [
        {
          "indexed": true,
          "internalType": "address",
          "name": "from",
          "type": "address"
        },
        {
          "indexed": true,
          "internalType": "address",
          "name": "to",
          "type": "address"
        },
        {
          "indexed": true,
          "internalType": "uint256",
          "name": "tokenId",
          "type": "uint256"
        }
      ],
      "name": "Transfer",
      "type": "event"
    },
    {
      "inputs": [
        {
          "internalType": "address",
          "name": "to",
          "type": "address"
        },
        {
          "internalType": "uint256",
          "name": "tokenId",
          "type": "uint256"
        }
      ],
      "name": "approve",
      "outputs": [],
      "stateMutability": "nonpayable",
      "type": "function"
    },
    {
      "inputs": [
        {
          "internalType": "address",
          "name": "owner",
          "type": "address"
        }
      ],
      "name": "balanceOf",
      "outputs": [
        {
          "internalType": "uint256",
          "name": "",
          "type": "uint256"
        }
      ],
      "stateMutability": "view",
      "type": "function"
    },
    {
      "inputs": [
        {
          "internalType": "uint256",
          "name": "tokenId",
          "type": "uint256"
        }
      ],
      "name": "getApproved",
      "outputs": [
        {
          "internalType": "address",
          "name": "",
          "type": "address"
        }
      ],
      "stateMutability": "view",
      "type": "function"
    },
    {
      "inputs": [
        {
          "internalType": "address",
          "name": "owner",
          "type": "address"
        },
        {
          "internalType": "address",
          "name": "operator",
          "type": "address"
        }
      ],
      "name": "isApprovedForAll",
      "outputs": [
        {
          "internalType": "bool",
          "name": "",
          "type": "bool"
        }
      ],
      "stateMutability": "view",
      "type": "function"
    },
    {
      "inputs": [
        {
          "internalType": "address",
          "name": "to",
          "type": "address"
        }
      ],
      "name": "mintRandomToken",
      "outputs": [
        {
          "internalType": "uint256",
          "name": "",
          "type": "uint256"
        }
      ],
      "stateMutability": "nonpayable",
      "type": "function"
    },
    {
      "inputs": [],
      "name": "name",
      "outputs": [
        {
          "internalType": "string",
          "name": "",
          "type": "string"
        }
      ],
      "stateMutability": "view",
      "type": "function"
    },
    {
      "inputs": [],
      "name": "owner",
      "outputs": [
        {
          "internalType": "address",
          "name": "",
          "type": "address"
        }
      ],
      "stateMutability": "view",
      "type": "function"
    },
    {
      "inputs": [
        {
          "internalType": "uint256",
          "name": "tokenId",
          "type": "uint256"
        }
      ],
      "name": "ownerOf",
      "outputs": [
        {
          "internalType": "address",
          "name": "",
          "type": "address"
        }
      ],
      "stateMutability": "view",
      "type": "function"
    },
    {
      "inputs": [
        {
          "internalType": "uint256",
          "name": "tokenId",
          "type": "uint256"
        }
      ],
      "name": "promptDescription",
      "outputs": [
        {
          "internalType": "string",
          "name": "",
          "type": "string"
        }
      ],
      "stateMutability": "view",
      "type": "function"
    },
    {
      "inputs": [],
      "name": "renounceOwnership",
      "outputs": [],
      "stateMutability": "nonpayable",
      "type": "function"
    },
    {
      "inputs": [
        {
          "internalType": "address",
          "name": "from",
          "type": "address"
        },
        {
          "internalType": "address",
          "name": "to",
          "type": "address"
        },
        {
          "internalType": "uint256",
          "name": "tokenId",
          "type": "uint256"
        }
      ],
      "name": "safeTransferFrom",
      "outputs": [],
      "stateMutability": "nonpayable",
      "type": "function"
    },
    {
      "inputs": [
        {
          "internalType": "address",
          "name": "from",
          "type": "address"
        },
        {
          "internalType": "address",
          "name": "to",
          "type": "address"
        },
        {
          "internalType": "uint256",
          "name": "tokenId",
          "type": "uint256"
        },
        {
          "internalType": "bytes",
          "name": "data",
          "type": "bytes"
        }
      ],
      "name": "safeTransferFrom",
      "outputs": [],
      "stateMutability": "nonpayable",
      "type": "function"
    },
    {
      "inputs": [
        {
          "internalType": "address",
          "name": "operator",
          "type": "address"
        },
        {
          "internalType": "bool",
          "name": "approved",
          "type": "bool"
        }
      ],
      "name": "setApprovalForAll",
      "outputs": [],
      "stateMutability": "nonpayable",
      "type": "function"
    },
    {
      "inputs": [
        {
          "internalType": "bytes4",
          "name": "interfaceId",
          "type": "bytes4"
        }
      ],
      "name": "supportsInterface",
      "outputs": [
        {
          "internalType": "bool",
          "name": "",
          "type": "bool"
        }
      ],
      "stateMutability": "view",
      "type": "function"
    },
    {
      "inputs": [],
      "name": "symbol",
      "outputs": [
        {
          "internalType": "string",
          "name": "",
          "type": "string"
        }
      ],
      "stateMutability": "view",
      "type": "function"
    },
    {
      "inputs": [
        {
          "internalType": "uint256",
          "name": "tokenId",
          "type": "uint256"
        }
      ],
      "name": "tokenURI",
      "outputs": [
        {
          "internalType": "string",
          "name": "",
          "type": "string"
        }
      ],
      "stateMutability": "view",
      "type": "function"
    },
    {
      "inputs": [
        {
          "internalType": "address",
          "name": "from",
          "type": "address"
        },
        {
          "internalType": "address",
          "name": "to",
          "type": "address"
        },
        {
          "internalType": "uint256",
          "name": "tokenId",
          "type": "uint256"
        }
      ],
      "name": "transferFrom",
      "outputs": [],
      "stateMutability": "nonpayable",
      "type": "function"
    },
    {
      "inputs": [
        {
          "internalType": "address",
          "name": "newOwner",
          "type": "address"
        }
      ],
      "name": "transferOwnership",
      "outputs": [],
      "stateMutability": "nonpayable",
      "type": "function"
    },
    {
      "inputs": [
        {
          "internalType": "address",
          "name": "to",
          "type": "address"
        },
        {
          "internalType": "uint256",
          "name": "tokenId",
          "type": "uint256"
        }
      ],
      "name": "transferToken",
      "outputs": [],
      "stateMutability": "nonpayable",
      "type": "function"
    }
  ],
  "bytecode": "0x608060405260405180602001604052806040518060800160405280605181526020016200338f6051913981525060099060016200003e929190620001e1565b503480156200004c57600080fd5b506040518060400160405280600c81526020017f52616e646f6d546f6b656e7300000000000000000000000000000000000000008152506040518060400160405280600381526020017f524e4400000000000000000000000000000000000000000000000000000000008152508160009080519060200190620000d192919062000248565b508060019080519060200190620000ea92919062000248565b5050506200010d620001016200011360201b60201c565b6200011b60201b60201c565b620003cb565b600033905090565b6000600760009054906101000a900473ffffffffffffffffffffffffffffffffffffffff16905081600760006101000a81548173ffffffffffffffffffffffffffffffffffffffff021916908373ffffffffffffffffffffffffffffffffffffffff1602179055508173ffffffffffffffffffffffffffffffffffffffff168173ffffffffffffffffffffffffffffffffffffffff167f8be0079c531659141344cd1fd0a4f28419497f9722a3daafe3b4186f6b6457e060405160405180910390a35050565b82805482825590600052602060002090810192821562000235579160200282015b82811115620002345782518290805190602001906200022392919062000248565b509160200191906001019062000202565b5b509050620002449190620002d9565b5090565b828054620002569062000395565b90600052602060002090601f0160209004810192826200027a5760008555620002c6565b82601f106200029557805160ff1916838001178555620002c6565b82800160010185558215620002c6579182015b82811115620002c5578251825591602001919060010190620002a8565b5b509050620002d5919062000301565b5090565b5b80821115620002fd5760008181620002f3919062000320565b50600101620002da565b5090565b5b808211156200031c57600081600090555060010162000302565b5090565b5080546200032e9062000395565b6000825580601f1062000342575062000363565b601f01602090049060005260206000209081019062000362919062000301565b5b50565b7f4e487b7100000000000000000000000000000000000000000000000000000000600052602260045260246000fd5b60006002820490506001821680620003ae57607f821691505b60208210811415620003c557620003c462000366565b5b50919050565b612fb480620003db6000396000f3fe608060405234801561001057600080fd5b50600436106101215760003560e01c8063715018a6116100ad578063a22cb46511610071578063a22cb4651461031a578063b88d4fde14610336578063c87b56dd14610352578063e985e9c514610382578063f2fde38b146103b257610121565b8063715018a614610274578063772c6f0c1461027e5780638da5cb5b146102ae5780638e5a8638146102cc57806395d89b41146102fc57610121565b80631072cbea116100f45780631072cbea146101c057806323b872dd146101dc57806342842e0e146101f85780636352211e1461021457806370a082311461024457610121565b806301ffc9a71461012657806306fdde0314610156578063081812fc14610174578063095ea7b3146101a4575b600080fd5b610140600480360381019061013b9190611f82565b6103ce565b60405161014d9190611fca565b60405180910390f35b61015e6103e0565b60405161016b919061207e565b60405180910390f35b61018e600480360381019061018991906120d6565b610472565b60405161019b9190612144565b60405180910390f35b6101be60048036038101906101b9919061218b565b6104b8565b005b6101da60048036038101906101d5919061218b565b6105d0565b005b6101f660048036038101906101f191906121cb565b610628565b005b610212600480360381019061020d91906121cb565b610688565b005b61022e600480360381019061022991906120d6565b6106a8565b60405161023b9190612144565b60405180910390f35b61025e6004803603810190610259919061221e565b61072f565b60405161026b919061225a565b60405180910390f35b61027c6107e7565b005b6102986004803603810190610293919061221e565b6107fb565b6040516102a5919061225a565b60405180910390f35b6102b66108ef565b6040516102c39190612144565b60405180910390f35b6102e660048036038101906102e191906120d6565b610919565b6040516102f3919061207e565b60405180910390f35b610304610983565b604051610311919061207e565b60405180910390f35b610334600480360381019061032f91906122a1565b610a15565b005b610350600480360381019061034b9190612416565b610a2b565b005b61036c600480360381019061036791906120d6565b610a8d565b604051610379919061207e565b60405180910390f35b61039c60048036038101906103979190612499565b610a9f565b6040516103a99190611fca565b60405180910390f35b6103cc60048036038101906103c7919061221e565b610b33565b005b60006103d982610bb7565b9050919050565b6060600080546103ef90612508565b80601f016020809104026020016040519081016040528092919081815260200182805461041b90612508565b80156104685780601f1061043d57610100808354040283529160200191610468565b820191906000526020600020905b81548152906001019060200180831161044b57829003601f168201915b5050505050905090565b600061047d82610c18565b6004600083815260200190815260200160002060009054906101000a900473ffffffffffffffffffffffffffffffffffffffff169050919050565b60006104c3826106a8565b90508073ffffffffffffffffffffffffffffffffffffffff168373ffffffffffffffffffffffffffffffffffffffff161415610534576040517f08c379a000000000000000000000000000000000000000000000000000000000815260040161052b906125ac565b60405180910390fd5b8073ffffffffffffffffffffffffffffffffffffffff16610553610c63565b73ffffffffffffffffffffffffffffffffffffffff16148061058257506105818161057c610c63565b610a9f565b5b6105c1576040517f08c379a00000000000000000000000000000000000000000000000000000000081526004016105b89061263e565b60405180910390fd5b6105cb8383610c6b565b505050565b6105da3382610d24565b610619576040517f08c379a0000000000000000000000000000000000000000000000000000000008152600401610610906126d0565b60405180910390fd5b610624338383610688565b5050565b610639610633610c63565b82610d24565b610678576040517f08c379a000000000000000000000000000000000000000000000000000000000815260040161066f90612762565b60405180910390fd5b610683838383610db9565b505050565b6106a383838360405180602001604052806000815250610a2b565b505050565b6000806106b4836110b3565b9050600073ffffffffffffffffffffffffffffffffffffffff168173ffffffffffffffffffffffffffffffffffffffff161415610726576040517f08c379a000000000000000000000000000000000000000000000000000000000815260040161071d906127ce565b60405180910390fd5b80915050919050565b60008073ffffffffffffffffffffffffffffffffffffffff168273ffffffffffffffffffffffffffffffffffffffff1614156107a0576040517f08c379a000000000000000000000000000000000000000000000000000000000815260040161079790612860565b60405180910390fd5b600360008373ffffffffffffffffffffffffffffffffffffffff1673ffffffffffffffffffffffffffffffffffffffff168152602001908152602001600020549050919050565b6107ef6110f0565b6107f9600061116e565b565b60006108056110f0565b61080f6008611234565b600061081b600861124a565b90506108278382611258565b6108e681600980805490508461083d91906128af565b8154811061084e5761084d6128e0565b5b90600052602060002001805461086390612508565b80601f016020809104026020016040519081016040528092919081815260200182805461088f90612508565b80156108dc5780601f106108b1576101008083540402835291602001916108dc565b820191906000526020600020905b8154815290600101906020018083116108bf57829003601f168201915b5050505050611276565b80915050919050565b6000600760009054906101000a900473ffffffffffffffffffffffffffffffffffffffff16905090565b606061092482611321565b610963576040517f08c379a000000000000000000000000000000000000000000000000000000000815260040161095a9061295b565b60405180910390fd5b604051806060016040528060368152602001612f49603691399050919050565b60606001805461099290612508565b80601f01602080910402602001604051908101604052809291908181526020018280546109be90612508565b8015610a0b5780601f106109e057610100808354040283529160200191610a0b565b820191906000526020600020905b8154815290600101906020018083116109ee57829003601f168201915b5050505050905090565b610a27610a20610c63565b8383611362565b5050565b610a3c610a36610c63565b83610d24565b610a7b576040517f08c379a0000000000000000000000000000000000000000000000000000000008152600401610a7290612762565b60405180910390fd5b610a87848484846114cf565b50505050565b6060610a988261152b565b9050919050565b6000600560008473ffffffffffffffffffffffffffffffffffffffff1673ffffffffffffffffffffffffffffffffffffffff16815260200190815260200160002060008373ffffffffffffffffffffffffffffffffffffffff1673ffffffffffffffffffffffffffffffffffffffff16815260200190815260200160002060009054906101000a900460ff16905092915050565b610b3b6110f0565b600073ffffffffffffffffffffffffffffffffffffffff168173ffffffffffffffffffffffffffffffffffffffff161415610bab576040517f08c379a0000000000000000000000000000000000000000000000000000000008152600401610ba2906129ed565b60405180910390fd5b610bb48161116e565b50565b6000634906490660e01b7bffffffffffffffffffffffffffffffffffffffffffffffffffffffff1916827bffffffffffffffffffffffffffffffffffffffffffffffffffffffff19161480610c115750610c108261163e565b5b9050919050565b610c2181611321565b610c60576040517f08c379a0000000000000000000000000000000000000000000000000000000008152600401610c57906127ce565b60405180910390fd5b50565b600033905090565b816004600083815260200190815260200160002060006101000a81548173ffffffffffffffffffffffffffffffffffffffff021916908373ffffffffffffffffffffffffffffffffffffffff160217905550808273ffffffffffffffffffffffffffffffffffffffff16610cde836106a8565b73ffffffffffffffffffffffffffffffffffffffff167f8c5be1e5ebec7d5bd14f71427d1e84f3dd0314c0f7b2291e5b200ac8c7c3b92560405160405180910390a45050565b600080610d30836106a8565b90508073ffffffffffffffffffffffffffffffffffffffff168473ffffffffffffffffffffffffffffffffffffffff161480610d725750610d718185610a9f565b5b80610db057508373ffffffffffffffffffffffffffffffffffffffff16610d9884610472565b73ffffffffffffffffffffffffffffffffffffffff16145b91505092915050565b8273ffffffffffffffffffffffffffffffffffffffff16610dd9826106a8565b73ffffffffffffffffffffffffffffffffffffffff1614610e2f576040517f08c379a0000000000000000000000000000000000000000000000000000000008152600401610e2690612a7f565b60405180910390fd5b600073ffffffffffffffffffffffffffffffffffffffff168273ffffffffffffffffffffffffffffffffffffffff161415610e9f576040517f08c379a0000000000000000000000000000000000000000000000000000000008152600401610e9690612b11565b60405180910390fd5b610eac8383836001611720565b8273ffffffffffffffffffffffffffffffffffffffff16610ecc826106a8565b73ffffffffffffffffffffffffffffffffffffffff1614610f22576040517f08c379a0000000000000000000000000000000000000000000000000000000008152600401610f1990612a7f565b60405180910390fd5b6004600082815260200190815260200160002060006101000a81549073ffffffffffffffffffffffffffffffffffffffff02191690556001600360008573ffffffffffffffffffffffffffffffffffffffff1673ffffffffffffffffffffffffffffffffffffffff168152602001908152602001600020600082825403925050819055506001600360008473ffffffffffffffffffffffffffffffffffffffff1673ffffffffffffffffffffffffffffffffffffffff16815260200190815260200160002060008282540192505081905550816002600083815260200190815260200160002060006101000a81548173ffffffffffffffffffffffffffffffffffffffff021916908373ffffffffffffffffffffffffffffffffffffffff160217905550808273ffffffffffffffffffffffffffffffffffffffff168473ffffffffffffffffffffffffffffffffffffffff167fddf252ad1be2c89b69c2b068fc378daa952ba7f163c4a11628f55a4df523b3ef60405160405180910390a46110ae8383836001611726565b505050565b60006002600083815260200190815260200160002060009054906101000a900473ffffffffffffffffffffffffffffffffffffffff169050919050565b6110f8610c63565b73ffffffffffffffffffffffffffffffffffffffff166111166108ef565b73ffffffffffffffffffffffffffffffffffffffff161461116c576040517f08c379a000000000000000000000000000000000000000000000000000000000815260040161116390612b7d565b60405180910390fd5b565b6000600760009054906101000a900473ffffffffffffffffffffffffffffffffffffffff16905081600760006101000a81548173ffffffffffffffffffffffffffffffffffffffff021916908373ffffffffffffffffffffffffffffffffffffffff1602179055508173ffffffffffffffffffffffffffffffffffffffff168173ffffffffffffffffffffffffffffffffffffffff167f8be0079c531659141344cd1fd0a4f28419497f9722a3daafe3b4186f6b6457e060405160405180910390a35050565b6001816000016000828254019250508190555050565b600081600001549050919050565b61127282826040518060200160405280600081525061172c565b5050565b61127f82611321565b6112be576040517f08c379a00000000000000000000000000000000000000000000000000000000081526004016112b590612c0f565b60405180910390fd5b806006600084815260200190815260200160002090805190602001906112e5929190611e73565b507ff8e1a15aba9398e019f0b49df1a4fde98ee17ae345cb5f6b5e2c27f5033e8ce782604051611315919061225a565b60405180910390a15050565b60008073ffffffffffffffffffffffffffffffffffffffff16611343836110b3565b73ffffffffffffffffffffffffffffffffffffffff1614159050919050565b8173ffffffffffffffffffffffffffffffffffffffff168373ffffffffffffffffffffffffffffffffffffffff1614156113d1576040517f08c379a00000000000000000000000000000000000000000000000000000000081526004016113c890612c7b565b60405180910390fd5b80600560008573ffffffffffffffffffffffffffffffffffffffff1673ffffffffffffffffffffffffffffffffffffffff16815260200190815260200160002060008473ffffffffffffffffffffffffffffffffffffffff1673ffffffffffffffffffffffffffffffffffffffff16815260200190815260200160002060006101000a81548160ff0219169083151502179055508173ffffffffffffffffffffffffffffffffffffffff168373ffffffffffffffffffffffffffffffffffffffff167f17307eab39ab6107e8899845ad3d59bd9653f200f220920489ca2b5937696c31836040516114c29190611fca565b60405180910390a3505050565b6114da848484610db9565b6114e684848484611787565b611525576040517f08c379a000000000000000000000000000000000000000000000000000000000815260040161151c90612d0d565b60405180910390fd5b50505050565b606061153682610c18565b600060066000848152602001908152602001600020805461155690612508565b80601f016020809104026020016040519081016040528092919081815260200182805461158290612508565b80156115cf5780601f106115a4576101008083540402835291602001916115cf565b820191906000526020600020905b8154815290600101906020018083116115b257829003601f168201915b5050505050905060006115e061191e565b90506000815114156115f6578192505050611639565b60008251111561162b578082604051602001611613929190612d69565b60405160208183030381529060405292505050611639565b61163484611935565b925050505b919050565b60007f80ac58cd000000000000000000000000000000000000000000000000000000007bffffffffffffffffffffffffffffffffffffffffffffffffffffffff1916827bffffffffffffffffffffffffffffffffffffffffffffffffffffffff1916148061170957507f5b5e139f000000000000000000000000000000000000000000000000000000007bffffffffffffffffffffffffffffffffffffffffffffffffffffffff1916827bffffffffffffffffffffffffffffffffffffffffffffffffffffffff1916145b8061171957506117188261199d565b5b9050919050565b50505050565b50505050565b6117368383611a07565b6117436000848484611787565b611782576040517f08c379a000000000000000000000000000000000000000000000000000000000815260040161177990612d0d565b60405180910390fd5b505050565b60006117a88473ffffffffffffffffffffffffffffffffffffffff16611c25565b15611911578373ffffffffffffffffffffffffffffffffffffffff1663150b7a026117d1610c63565b8786866040518563ffffffff1660e01b81526004016117f39493929190612de2565b602060405180830381600087803b15801561180d57600080fd5b505af192505050801561183e57506040513d601f19601f8201168201806040525081019061183b9190612e43565b60015b6118c1573d806000811461186e576040519150601f19603f3d011682016040523d82523d6000602084013e611873565b606091505b506000815114156118b9576040517f08c379a00000000000000000000000000000000000000000000000000000000081526004016118b090612d0d565b60405180910390fd5b805181602001fd5b63150b7a0260e01b7bffffffffffffffffffffffffffffffffffffffffffffffffffffffff1916817bffffffffffffffffffffffffffffffffffffffffffffffffffffffff191614915050611916565b600190505b949350505050565b606060405180602001604052806000815250905090565b606061194082610c18565b600061194a61191e565b9050600081511161196a5760405180602001604052806000815250611995565b8061197484611c48565b604051602001611985929190612d69565b6040516020818303038152906040525b915050919050565b60007f01ffc9a7000000000000000000000000000000000000000000000000000000007bffffffffffffffffffffffffffffffffffffffffffffffffffffffff1916827bffffffffffffffffffffffffffffffffffffffffffffffffffffffff1916149050919050565b600073ffffffffffffffffffffffffffffffffffffffff168273ffffffffffffffffffffffffffffffffffffffff161415611a77576040517f08c379a0000000000000000000000000000000000000000000000000000000008152600401611a6e90612ebc565b60405180910390fd5b611a8081611321565b15611ac0576040517f08c379a0000000000000000000000000000000000000000000000000000000008152600401611ab790612f28565b60405180910390fd5b611ace600083836001611720565b611ad781611321565b15611b17576040517f08c379a0000000000000000000000000000000000000000000000000000000008152600401611b0e90612f28565b60405180910390fd5b6001600360008473ffffffffffffffffffffffffffffffffffffffff1673ffffffffffffffffffffffffffffffffffffffff16815260200190815260200160002060008282540192505081905550816002600083815260200190815260200160002060006101000a81548173ffffffffffffffffffffffffffffffffffffffff021916908373ffffffffffffffffffffffffffffffffffffffff160217905550808273ffffffffffffffffffffffffffffffffffffffff16600073ffffffffffffffffffffffffffffffffffffffff167fddf252ad1be2c89b69c2b068fc378daa952ba7f163c4a11628f55a4df523b3ef60405160405180910390a4611c21600083836001611726565b5050565b6000808273ffffffffffffffffffffffffffffffffffffffff163b119050919050565b606060006001611c5784611d20565b01905060008167ffffffffffffffff811115611c7657611c756122eb565b5b6040519080825280601f01601f191660200182016040528015611ca85781602001600182028036833780820191505090505b509050600082602001820190505b600115611d15578080600190039150507f3031323334353637383961626364656600000000000000000000000000000000600a86061a8153600a8581611cff57611cfe612880565b5b0494506000851415611d1057611d15565b611cb6565b819350505050919050565b600080600090507a184f03e93ff9f4daa797ed6e38ed64bf6a1f0100000000000000008310611d7e577a184f03e93ff9f4daa797ed6e38ed64bf6a1f0100000000000000008381611d7457611d73612880565b5b0492506040810190505b6d04ee2d6d415b85acef81000000008310611dbb576d04ee2d6d415b85acef81000000008381611db157611db0612880565b5b0492506020810190505b662386f26fc100008310611dea57662386f26fc100008381611de057611ddf612880565b5b0492506010810190505b6305f5e1008310611e13576305f5e1008381611e0957611e08612880565b5b0492506008810190505b6127108310611e38576127108381611e2e57611e2d612880565b5b0492506004810190505b60648310611e5b5760648381611e5157611e50612880565b5b0492506002810190505b600a8310611e6a576001810190505b80915050919050565b828054611e7f90612508565b90600052602060002090601f016020900481019282611ea15760008555611ee8565b82601f10611eba57805160ff1916838001178555611ee8565b82800160010185558215611ee8579182015b82811115611ee7578251825591602001919060010190611ecc565b5b509050611ef59190611ef9565b5090565b5b80821115611f12576000816000905550600101611efa565b5090565b6000604051905090565b600080fd5b600080fd5b60007fffffffff0000000000000000000000000000000000000000000000000000000082169050919050565b611f5f81611f2a565b8114611f6a57600080fd5b50565b600081359050611f7c81611f56565b92915050565b600060208284031215611f9857611f97611f20565b5b6000611fa684828501611f6d565b91505092915050565b60008115159050919050565b611fc481611faf565b82525050565b6000602082019050611fdf6000830184611fbb565b92915050565b600081519050919050565b600082825260208201905092915050565b60005b8381101561201f578082015181840152602081019050612004565b8381111561202e576000848401525b50505050565b6000601f19601f8301169050919050565b600061205082611fe5565b61205a8185611ff0565b935061206a818560208601612001565b61207381612034565b840191505092915050565b600060208201905081810360008301526120988184612045565b905092915050565b6000819050919050565b6120b3816120a0565b81146120be57600080fd5b50565b6000813590506120d0816120aa565b92915050565b6000602082840312156120ec576120eb611f20565b5b60006120fa848285016120c1565b91505092915050565b600073ffffffffffffffffffffffffffffffffffffffff82169050919050565b600061212e82612103565b9050919050565b61213e81612123565b82525050565b60006020820190506121596000830184612135565b92915050565b61216881612123565b811461217357600080fd5b50565b6000813590506121858161215f565b92915050565b600080604083850312156121a2576121a1611f20565b5b60006121b085828601612176565b92505060206121c1858286016120c1565b9150509250929050565b6000806000606084860312156121e4576121e3611f20565b5b60006121f286828701612176565b935050602061220386828701612176565b9250506040612214868287016120c1565b9150509250925092565b60006020828403121561223457612233611f20565b5b600061224284828501612176565b91505092915050565b612254816120a0565b82525050565b600060208201905061226f600083018461224b565b92915050565b61227e81611faf565b811461228957600080fd5b50565b60008135905061229b81612275565b92915050565b600080604083850312156122b8576122b7611f20565b5b60006122c685828601612176565b92505060206122d78582860161228c565b9150509250929050565b600080fd5b600080fd5b7f4e487b7100000000000000000000000000000000000000000000000000000000600052604160045260246000fd5b61232382612034565b810181811067ffffffffffffffff82111715612342576123416122eb565b5b80604052505050565b6000612355611f16565b9050612361828261231a565b919050565b600067ffffffffffffffff821115612381576123806122eb565b5b61238a82612034565b9050602081019050919050565b82818337600083830152505050565b60006123b96123b484612366565b61234b565b9050828152602081018484840111156123d5576123d46122e6565b5b6123e0848285612397565b509392505050565b600082601f8301126123fd576123fc6122e1565b5b813561240d8482602086016123a6565b91505092915050565b600080600080608085870312156124305761242f611f20565b5b600061243e87828801612176565b945050602061244f87828801612176565b9350506040612460878288016120c1565b925050606085013567ffffffffffffffff81111561248157612480611f25565b5b61248d878288016123e8565b91505092959194509250565b600080604083850312156124b0576124af611f20565b5b60006124be85828601612176565b92505060206124cf85828601612176565b9150509250929050565b7f4e487b7100000000000000000000000000000000000000000000000000000000600052602260045260246000fd5b6000600282049050600182168061252057607f821691505b60208210811415612534576125336124d9565b5b50919050565b7f4552433732313a20617070726f76616c20746f2063757272656e74206f776e6560008201527f7200000000000000000000000000000000000000000000000000000000000000602082015250565b6000612596602183611ff0565b91506125a18261253a565b604082019050919050565b600060208201905081810360008301526125c581612589565b9050919050565b7f4552433732313a20617070726f76652063616c6c6572206973206e6f7420746f60008201527f6b656e206f776e6572206f7220617070726f76656420666f7220616c6c000000602082015250565b6000612628603d83611ff0565b9150612633826125cc565b604082019050919050565b600060208201905081810360008301526126578161261b565b9050919050565b7f5472616e736665722063616c6c6572206973206e6f74206f776e6572206e6f7260008201527f20617070726f7665640000000000000000000000000000000000000000000000602082015250565b60006126ba602983611ff0565b91506126c58261265e565b604082019050919050565b600060208201905081810360008301526126e9816126ad565b9050919050565b7f4552433732313a2063616c6c6572206973206e6f7420746f6b656e206f776e6560008201527f72206f7220617070726f76656400000000000000000000000000000000000000602082015250565b600061274c602d83611ff0565b9150612757826126f0565b604082019050919050565b6000602082019050818103600083015261277b8161273f565b9050919050565b7f4552433732313a20696e76616c696420746f6b656e2049440000000000000000600082015250565b60006127b8601883611ff0565b91506127c382612782565b602082019050919050565b600060208201905081810360008301526127e7816127ab565b9050919050565b7f4552433732313a2061646472657373207a65726f206973206e6f74206120766160008201527f6c6964206f776e65720000000000000000000000000000000000000000000000602082015250565b600061284a602983611ff0565b9150612855826127ee565b604082019050919050565b600060208201905081810360008301526128798161283d565b9050919050565b7f4e487b7100000000000000000000000000000000000000000000000000000000600052601260045260246000fd5b60006128ba826120a0565b91506128c5836120a0565b9250826128d5576128d4612880565b5b828206905092915050565b7f4e487b7100000000000000000000000000000000000000000000000000000000600052603260045260246000fd5b7f546f6b656e20494420646f6573206e6f74206578697374000000000000000000600082015250565b6000612945601783611ff0565b91506129508261290f565b602082019050919050565b6000602082019050818103600083015261297481612938565b9050919050565b7f4f776e61626c653a206e6577206f776e657220697320746865207a65726f206160008201527f6464726573730000000000000000000000000000000000000000000000000000602082015250565b60006129d7602683611ff0565b91506129e28261297b565b604082019050919050565b60006020820190508181036000830152612a06816129ca565b9050919050565b7f4552433732313a207472616e736665722066726f6d20696e636f72726563742060008201527f6f776e6572000000000000000000000000000000000000000000000000000000602082015250565b6000612a69602583611ff0565b9150612a7482612a0d565b604082019050919050565b60006020820190508181036000830152612a9881612a5c565b9050919050565b7f4552433732313a207472616e7366657220746f20746865207a65726f2061646460008201527f7265737300000000000000000000000000000000000000000000000000000000602082015250565b6000612afb602483611ff0565b9150612b0682612a9f565b604082019050919050565b60006020820190508181036000830152612b2a81612aee565b9050919050565b7f4f776e61626c653a2063616c6c6572206973206e6f7420746865206f776e6572600082015250565b6000612b67602083611ff0565b9150612b7282612b31565b602082019050919050565b60006020820190508181036000830152612b9681612b5a565b9050919050565b7f45524337323155524953746f726167653a2055524920736574206f66206e6f6e60008201527f6578697374656e7420746f6b656e000000000000000000000000000000000000602082015250565b6000612bf9602e83611ff0565b9150612c0482612b9d565b604082019050919050565b60006020820190508181036000830152612c2881612bec565b9050919050565b7f4552433732313a20617070726f766520746f2063616c6c657200000000000000600082015250565b6000612c65601983611ff0565b9150612c7082612c2f565b602082019050919050565b60006020820190508181036000830152612c9481612c58565b9050919050565b7f4552433732313a207472616e7366657220746f206e6f6e20455243373231526560008201527f63656976657220696d706c656d656e7465720000000000000000000000000000602082015250565b6000612cf7603283611ff0565b9150612d0282612c9b565b604082019050919050565b60006020820190508181036000830152612d2681612cea565b9050919050565b600081905092915050565b6000612d4382611fe5565b612d4d8185612d2d565b9350612d5d818560208601612001565b80840191505092915050565b6000612d758285612d38565b9150612d818284612d38565b91508190509392505050565b600081519050919050565b600082825260208201905092915050565b6000612db482612d8d565b612dbe8185612d98565b9350612dce818560208601612001565b612dd781612034565b840191505092915050565b6000608082019050612df76000830187612135565b612e046020830186612135565b612e11604083018561224b565b8181036060830152612e238184612da9565b905095945050505050565b600081519050612e3d81611f56565b92915050565b600060208284031215612e5957612e58611f20565b5b6000612e6784828501612e2e565b91505092915050565b7f4552433732313a206d696e7420746f20746865207a65726f2061646472657373600082015250565b6000612ea6602083611ff0565b9150612eb182612e70565b602082019050919050565b60006020820190508181036000830152612ed581612e99565b9050919050565b7f4552433732313a20746f6b656e20616c7265616479206d696e74656400000000600082015250565b6000612f12601c83611ff0565b9150612f1d82612edc565b602082019050919050565b60006020820190508181036000830152612f4181612f05565b905091905056fe492068617665206372656174656420736f6d652072616e646f6d207069637475726573206f66206f757220656e7669726f6e6d656e74a2646970667358221220e562f999e2654b8b207eaa7faed4eae73839541ffa88a652711921dea9ec93bc64736f6c6343000809003368747470733a2f2f676174657761792e70696e6174612e636c6f75642f697066732f516d597961726f5478586a42634475476e754c6b5a77783937566f454b7a58507374484e523477366e595948354d2f",
  "linkReferences": {},
  "deployedLinkReferences": {}
}